{
  "contractName": "RoleManagement",
  "abi": [
    {
      "constant": true,
      "inputs": [],
      "name": "userContractLookup",
      "outputs": [
        {
          "name": "",
          "type": "address"
        }
      ],
      "payable": false,
      "stateMutability": "view",
      "type": "function"
    },
    {
      "constant": true,
      "inputs": [],
      "name": "owner",
      "outputs": [
        {
          "name": "",
          "type": "address"
        }
      ],
      "payable": false,
      "stateMutability": "view",
      "type": "function"
    },
    {
      "constant": false,
      "inputs": [
        {
          "name": "_newOwner",
          "type": "address"
        }
      ],
      "name": "changeOwner",
      "outputs": [],
      "payable": false,
      "stateMutability": "nonpayable",
      "type": "function"
    },
    {
      "inputs": [
        {
          "name": "_userContractLookup",
          "type": "address"
        },
        {
          "name": "_owner",
          "type": "address"
        }
      ],
      "payable": false,
      "stateMutability": "nonpayable",
      "type": "constructor"
    },
    {
      "anonymous": false,
      "inputs": [
        {
          "indexed": false,
          "name": "_newOwner",
          "type": "address"
        }
      ],
      "name": "LogChangeOwner",
      "type": "event"
    },
    {
      "constant": true,
      "inputs": [
        {
          "name": "_role",
          "type": "uint8"
        },
        {
          "name": "_caller",
          "type": "address"
        }
      ],
      "name": "isRole",
      "outputs": [
        {
          "name": "",
          "type": "bool"
        }
      ],
      "payable": false,
      "stateMutability": "view",
      "type": "function"
    }
  ],
  "bytecode": "0x608060405234801561001057600080fd5b506040516040806104898339810180604052604081101561003057600080fd5b50805160209091015160008054600160a060020a03928316600160a060020a03199182161790915560018054929093169116179055610415806100746000396000f3fe6080604052600436106100615763ffffffff7c010000000000000000000000000000000000000000000000000000000060003504166344724c8c81146100665780638da5cb5b14610097578063a6f9dae1146100ac578063bb5a389e146100e1575b600080fd5b34801561007257600080fd5b5061007b610131565b60408051600160a060020a039092168252519081900360200190f35b3480156100a357600080fd5b5061007b610140565b3480156100b857600080fd5b506100df600480360360208110156100cf57600080fd5b5035600160a060020a031661014f565b005b3480156100ed57600080fd5b5061011d6004803603604081101561010457600080fd5b50803560ff169060200135600160a060020a03166102a0565b604080519115158252519081900360200190f35b600154600160a060020a031681565b600054600160a060020a031681565b600054600160a060020a031633146101c857604080517f08c379a000000000000000000000000000000000000000000000000000000000815260206004820152601760248201527f6d73672e73656e646572206973206e6f74206f776e6572000000000000000000604482015290519081900360640190fd5b600160a060020a038116151561023f57604080517f08c379a000000000000000000000000000000000000000000000000000000000815260206004820152601860248201527f307830206173206f776e6572206e6f7420616c6c6f7765640000000000000000604482015290519081900360640190fd5b60008054600160a060020a03831673ffffffffffffffffffffffffffffffffffffffff19909116811790915560408051918252517f95fd54179c11867fb083dd94347ea50f144dd4cfd7612b7bca169f162824af169181900360200190a150565b600080600160009054906101000a9004600160a060020a0316600160a060020a0316635c7460d66040518163ffffffff167c010000000000000000000000000000000000000000000000000000000002815260040160206040518083038186803b15801561030d57600080fd5b505afa158015610321573d6000803e3d6000fd5b505050506040513d602081101561033757600080fd5b5051604080517f265209f2000000000000000000000000000000000000000000000000000000008152600160a060020a0386811660048301529151919092169163265209f2916024808301926020929190829003018186803b15801561039c57600080fd5b505afa1580156103b0573d6000803e3d6000fd5b505050506040513d60208110156103c657600080fd5b5051905060008460058111156103d857fe5b60020a91909116151594935050505056fea165627a7a72305820910b2aa35333a10bd85140d4640fe50b3b5854b3ff0a2c53610370c3cb48a7c80029",
  "source": "// Copyright 2018 Energy Web Foundation\n// This file is part of the Origin Application brought to you by the Energy Web Foundation,\n// a global non-profit organization focused on accelerating blockchain technology across the energy sector,\n// incorporated in Zug, Switzerland.\n//\n// The Origin Application is free software: you can redistribute it and/or modify\n// it under the terms of the GNU General Public License as published by\n// the Free Software Foundation, either version 3 of the License, or\n// (at your option) any later version.\n// This is distributed in the hope that it will be useful,\n// but WITHOUT ANY WARRANTY and without an implied warranty of\n// MERCHANTABILITY or FITNESS FOR A PARTICULAR PURPOSE.  See the\n// GNU General Public License for more details, at <http://www.gnu.org/licenses/>.\n//\n// @authors: slock.it GmbH; Martin Kuechler, martin.kuchler@slock.it; Heiko Burkhardt, heiko.burkhardt@slock.it\n\npragma solidity ^0.5.0;\nimport \"../../contracts/Interfaces/UserContractLookupInterface.sol\";\nimport \"../../contracts/Interfaces/RolesInterface.sol\";\nimport \"ew-utils-general-contracts/contracts/Msc/Owned.sol\";\n\n/// @notice contract for managing the rights and roles\ncontract RoleManagement is Owned{\n\n    /// @notice all possible available roles\n    /*\n    no role:        0x0...0000000\n    UserAdmin:      0x0...-----1 = 1\n    AssetAdmin:     0x0...----1- = 2\n    AgreementAdmin: 0x0...---1-- = 4\n    AssetManager:   0x0...--1--- = 8\n    Tader:          0x0...-1---- = 16\n    Matcher:        0x0...1----- = 32\n    */\n    enum Role{\n        UserAdmin,\n        AssetAdmin,\n        AgreementAdmin, //TODO: remove agreement-Admin\n        AssetManager,\n        Trader,\n        Matcher\n    }\n\n    ///@param contract-lookup for users\n    UserContractLookupInterface public userContractLookup;\n\n    /// @notice modifier for checking if an user is allowed to execute the intended action\n    /// @param _role one of the roles of the enum Role\n    modifier onlyRole (RoleManagement.Role _role) {\n        require (isRole(_role, msg.sender),\"user does not have the required role\");\n        _;\n    }\n\n    /// @notice modifier for checking that only a certain account can do an action\n    /// @param _accountAddress the account that should be allowed to do that action\n    modifier onlyAccount(address _accountAddress) {\n        require(msg.sender == _accountAddress,\"account is not accountAddress\");\n        _;\n    }\n\n    /// @notice modifier that checks, whether an user exists\n    /// @param _user the user that has to be checked for existence\n    modifier userExists(address _user){\n        require(RolesInterface(userContractLookup.userRegistry()).doesUserExist(_user),\"User does not exist\");\n        _;\n    }\n\n    /// @notice modifier that checks, whether a user has a certain role\n    /// @param _role one of the roles of the enum Role\n    /// @param _user the address of the user to be checked for the role\n    modifier userHasRole(RoleManagement.Role _role, address _user){\n        require (isRole(_role, _user),\"user does not have the required role\");\n        _;\n    }\n\n    /// @notice constructor\n    /// @param _userContractLookup contract-lookup instance\n    /// @param _owner the owner of the contract\n    constructor(UserContractLookupInterface _userContractLookup, address _owner) Owned(_owner) public {\n        userContractLookup = _userContractLookup;\n    }\n\n    /// @notice funciton for comparing the role and the needed rights of an user\n    /// @param _role role of a user\n    /// @param _caller the user trying to call the action\n    /// @return whether the user has the corresponding rights for the intended action\n    function isRole(RoleManagement.Role _role, address _caller) public view returns (bool) {\n\n        /// @dev reading the rights for the user from the userDB-contract\n        uint rights = RolesInterface(userContractLookup.userRegistry()).getRolesRights(_caller);\n        /// @dev converting the used enum to the corresponding bitmask\n        uint role = uint(2) ** uint(_role);\n        /// @dev comparing rights and roles, if the result is not 0 the user has the right (bitwise comparison)\n        /// we also don't have to check for a potential overflow here, because the used enum will prevent using roles that do not exist\n        return (rights & role != 0);\n    }\n}\n",
  "sourcePath": "/Users/bagaricj/Code/ew-user-registry-lib/contracts/Users/RoleManagement.sol",
  "compiler": {
    "name": "solc",
    "version": "0.5.0+commit.1d4f565a.Emscripten.clang"
  },
  "schemaVersion": "3.0.9",
  "updatedAt": "2019-05-16T14:34:38.394Z",
  "devdoc": {
    "methods": {
      "changeOwner(address)": {
        "params": {
          "_newOwner": "The address of the new owner"
        }
      },
      "constructor": {
        "params": {
          "_owner": "the owner of the contract",
          "_userContractLookup": "contract-lookup instance"
        }
      },
      "isRole(uint8,address)": {
        "params": {
          "_caller": "the user trying to call the action",
          "_role": "role of a user"
        },
        "return": "whether the user has the corresponding rights for the intended action"
      }
    }
  },
  "userdoc": {
    "methods": {
      "changeOwner(address)": {
        "notice": "`owner` can step down and assign some other address to this role"
      },
      "constructor": "constructor",
      "isRole(uint8,address)": {
        "notice": "funciton for comparing the role and the needed rights of an user"
      }
    },
    "notice": "contract for managing the rights and roles"
  }
}