{
  "contractName": "UserLogic",
  "abi": [
    {
      "constant": true,
      "inputs": [],
      "name": "userContractLookup",
      "outputs": [
        {
          "name": "",
          "type": "address"
        }
      ],
      "payable": false,
      "stateMutability": "view",
      "type": "function"
    },
    {
      "constant": true,
      "inputs": [],
      "name": "db",
      "outputs": [
        {
          "name": "",
          "type": "address"
        }
      ],
      "payable": false,
      "stateMutability": "view",
      "type": "function"
    },
    {
      "constant": true,
      "inputs": [],
      "name": "owner",
      "outputs": [
        {
          "name": "",
          "type": "address"
        }
      ],
      "payable": false,
      "stateMutability": "view",
      "type": "function"
    },
    {
      "constant": false,
      "inputs": [
        {
          "name": "_newOwner",
          "type": "address"
        }
      ],
      "name": "changeOwner",
      "outputs": [],
      "payable": false,
      "stateMutability": "nonpayable",
      "type": "function"
    },
    {
      "constant": true,
      "inputs": [
        {
          "name": "_role",
          "type": "uint8"
        },
        {
          "name": "_caller",
          "type": "address"
        }
      ],
      "name": "isRole",
      "outputs": [
        {
          "name": "",
          "type": "bool"
        }
      ],
      "payable": false,
      "stateMutability": "view",
      "type": "function"
    },
    {
      "inputs": [
        {
          "name": "_userContractLookup",
          "type": "address"
        }
      ],
      "payable": false,
      "stateMutability": "nonpayable",
      "type": "constructor"
    },
    {
      "anonymous": false,
      "inputs": [
        {
          "indexed": false,
          "name": "_newOwner",
          "type": "address"
        }
      ],
      "name": "LogChangeOwner",
      "type": "event"
    },
    {
      "constant": false,
      "inputs": [
        {
          "name": "_user",
          "type": "address"
        }
      ],
      "name": "deactivateUser",
      "outputs": [],
      "payable": false,
      "stateMutability": "nonpayable",
      "type": "function"
    },
    {
      "constant": false,
      "inputs": [
        {
          "name": "_database",
          "type": "address"
        },
        {
          "name": "_admin",
          "type": "address"
        }
      ],
      "name": "init",
      "outputs": [],
      "payable": false,
      "stateMutability": "nonpayable",
      "type": "function"
    },
    {
      "constant": false,
      "inputs": [
        {
          "name": "_user",
          "type": "address"
        },
        {
          "name": "_organization",
          "type": "string"
        }
      ],
      "name": "setUser",
      "outputs": [],
      "payable": false,
      "stateMutability": "nonpayable",
      "type": "function"
    },
    {
      "constant": false,
      "inputs": [
        {
          "name": "_user",
          "type": "address"
        },
        {
          "name": "_rights",
          "type": "uint256"
        }
      ],
      "name": "setRoles",
      "outputs": [],
      "payable": false,
      "stateMutability": "nonpayable",
      "type": "function"
    },
    {
      "constant": false,
      "inputs": [
        {
          "name": "_newLogic",
          "type": "address"
        }
      ],
      "name": "update",
      "outputs": [],
      "payable": false,
      "stateMutability": "nonpayable",
      "type": "function"
    },
    {
      "constant": true,
      "inputs": [
        {
          "name": "_user",
          "type": "address"
        }
      ],
      "name": "doesUserExist",
      "outputs": [
        {
          "name": "",
          "type": "bool"
        }
      ],
      "payable": false,
      "stateMutability": "view",
      "type": "function"
    },
    {
      "constant": true,
      "inputs": [
        {
          "name": "_user",
          "type": "address"
        }
      ],
      "name": "getFullUser",
      "outputs": [
        {
          "name": "_organization",
          "type": "string"
        },
        {
          "name": "_roles",
          "type": "uint256"
        },
        {
          "name": "_active",
          "type": "bool"
        }
      ],
      "payable": false,
      "stateMutability": "view",
      "type": "function"
    },
    {
      "constant": true,
      "inputs": [
        {
          "name": "_user",
          "type": "address"
        }
      ],
      "name": "getRolesRights",
      "outputs": [
        {
          "name": "",
          "type": "uint256"
        }
      ],
      "payable": false,
      "stateMutability": "view",
      "type": "function"
    }
  ],
  "bytecode": "0x60806040523480156200001157600080fd5b5060405160208062001479833981018060405262000033919081019062000078565b60008054600160a060020a03909216600160a060020a0319928316811790915560018054909216179055620000cd565b6000620000718251620000c0565b9392505050565b6000602082840312156200008b57600080fd5b600062000099848462000063565b949350505050565b6000620000ae82620000b4565b92915050565b600160a060020a031690565b6000620000ae82620000a1565b61139c80620000dd6000396000f3fe6080604052600436106100ab5763ffffffff60e060020a6000350416631a47767b81146100b05780631c1b8772146100d2578063265209f2146100f257806333a3ad8f146101285780633f1a51b81461014857806344724c8c146101685780634d655aff1461018a5780638da5cb5b1461019f578063a6f9dae1146101c1578063bb5a389e146101e1578063c7af3efc1461020e578063ecb410541461023d578063f09a40161461025d575b600080fd5b3480156100bc57600080fd5b506100d06100cb366004610d9f565b61027d565b005b3480156100de57600080fd5b506100d06100ed366004610d9f565b61038a565b3480156100fe57600080fd5b5061011261010d366004610d9f565b610435565b60405161011f919061127e565b60405180910390f35b34801561013457600080fd5b506100d0610143366004610e73565b6104dd565b34801561015457600080fd5b506100d0610163366004610e1d565b6106c1565b34801561017457600080fd5b5061017d6107d4565b60405161011f91906111d3565b34801561019657600080fd5b5061017d6107e3565b3480156101ab57600080fd5b506101b46107f2565b60405161011f9190611157565b3480156101cd57600080fd5b506100d06101dc366004610d9f565b610801565b3480156101ed57600080fd5b506102016101fc366004610ec1565b6108bc565b60405161011f91906111c5565b34801561021a57600080fd5b5061022e610229366004610d9f565b6109e9565b60405161011f939291906111e1565b34801561024957600080fd5b50610201610258366004610d9f565b610aad565b34801561026957600080fd5b506100d0610278366004610de3565b610b55565b600061028981336108bc565b15156102b35760405160e560020a62461bcd0281526004016102aa9061124e565b60405180910390fd5b6102be6000836108bc565b1580156102d357506102d16001836108bc565b155b80156102e757506102e56002836108bc565b155b15156103085760405160e560020a62461bcd0281526004016102aa9061120e565b6002546040517f88e084ca000000000000000000000000000000000000000000000000000000008152600160a060020a03909116906388e084ca90610354908590600090600401611165565b600060405180830381600087803b15801561036e57600080fd5b505af1158015610382573d6000803e3d6000fd5b505050505050565b600054600160a060020a031633146103b75760405160e560020a62461bcd0281526004016102aa9061125e565b6002546040517fa6f9dae1000000000000000000000000000000000000000000000000000000008152600160a060020a039091169063a6f9dae190610400908490600401611157565b600060405180830381600087803b15801561041a57600080fd5b505af115801561042e573d6000803e3d6000fd5b5050505050565b6002546040517fc7af3efc000000000000000000000000000000000000000000000000000000008152600091600160a060020a03169063c7af3efc9061047f908590600401611157565b60006040518083038186803b15801561049757600080fd5b505afa1580156104ab573d6000803e3d6000fd5b505050506040513d6000823e601f3d908101601f191682016040526104d39190810190610ee0565b6020015192915050565b60006104e981336108bc565b151561050a5760405160e560020a62461bcd0281526004016102aa9061124e565b600154604080517f5c7460d600000000000000000000000000000000000000000000000000000000815290518592600160a060020a031691635c7460d6916004808301926020929190829003018186803b15801561056757600080fd5b505afa15801561057b573d6000803e3d6000fd5b505050506040513d601f19601f8201168201806040525061059f9190810190610dc5565b600160a060020a031663ecb41054826040518263ffffffff1660e060020a0281526004016105cd9190611157565b60206040518083038186803b1580156105e557600080fd5b505afa1580156105f9573d6000803e3d6000fd5b505050506040513d601f19601f8201168201806040525061061d9190810190610ea3565b151561063e5760405160e560020a62461bcd0281526004016102aa9061126e565b6002546040517f33a3ad8f000000000000000000000000000000000000000000000000000000008152600160a060020a03909116906333a3ad8f9061068990879087906004016111aa565b600060405180830381600087803b1580156106a357600080fd5b505af11580156106b7573d6000803e3d6000fd5b5050505050505050565b60006106cd81336108bc565b15156106ee5760405160e560020a62461bcd0281526004016102aa9061124e565b606083838080601f01602080910402602001604051908101604052809392919081815260200183838082843760009201829052508451949550909311925061074e9150505760405160e560020a62461bcd0281526004016102aa9061123e565b6002546040517f3f1a51b8000000000000000000000000000000000000000000000000000000008152600160a060020a0390911690633f1a51b89061079b90889088908890600401611180565b600060405180830381600087803b1580156107b557600080fd5b505af11580156107c9573d6000803e3d6000fd5b505050505050505050565b600154600160a060020a031681565b600254600160a060020a031681565b600054600160a060020a031681565b600054600160a060020a0316331461082e5760405160e560020a62461bcd0281526004016102aa9061125e565b600160a060020a03811615156108595760405160e560020a62461bcd0281526004016102aa9061122e565b6000805473ffffffffffffffffffffffffffffffffffffffff1916600160a060020a0383161790556040517f95fd54179c11867fb083dd94347ea50f144dd4cfd7612b7bca169f162824af16906108b1908390611157565b60405180910390a150565b600080600160009054906101000a9004600160a060020a0316600160a060020a0316635c7460d66040518163ffffffff1660e060020a02815260040160206040518083038186803b15801561091057600080fd5b505afa158015610924573d6000803e3d6000fd5b505050506040513d601f19601f820116820180604052506109489190810190610dc5565b600160a060020a031663265209f2846040518263ffffffff1660e060020a0281526004016109769190611157565b60206040518083038186803b15801561098e57600080fd5b505afa1580156109a2573d6000803e3d6000fd5b505050506040513d601f19601f820116820180604052506109c69190810190610f15565b905060008460058111156109d657fe5b60020a9190911615159150505b92915050565b60606000806109f6610c1c565b6002546040517fc7af3efc000000000000000000000000000000000000000000000000000000008152600160a060020a039091169063c7af3efc90610a3f908890600401611157565b60006040518083038186803b158015610a5757600080fd5b505afa158015610a6b573d6000803e3d6000fd5b505050506040513d6000823e601f3d908101601f19168201604052610a939190810190610ee0565b805160208201516040909201519097919650945092505050565b6002546040517fc7af3efc000000000000000000000000000000000000000000000000000000008152600091600160a060020a03169063c7af3efc90610af7908590600401611157565b60006040518083038186803b158015610b0f57600080fd5b505afa158015610b23573d6000803e3d6000fd5b505050506040513d6000823e601f3d908101601f19168201604052610b4b9190810190610ee0565b6040015192915050565b600054600160a060020a03163314610b825760405160e560020a62461bcd0281526004016102aa9061125e565b600254600160a060020a031615610bae5760405160e560020a62461bcd0281526004016102aa9061121e565b6002805473ffffffffffffffffffffffffffffffffffffffff1916600160a060020a0384811691909117918290556040517f33a3ad8f0000000000000000000000000000000000000000000000000000000081529116906333a3ad8f906103549084906001906004016111aa565b60606040519081016040528060608152602001600081526020016000151581525090565b6000610c4c82356112df565b9392505050565b6000610c4c82516112df565b6000610c4c82516112ea565b6000610c4c82356112fe565b600080601f83018413610c8957600080fd5b50813567ffffffffffffffff811115610ca157600080fd5b602083019150836001820283011115610cb957600080fd5b9250929050565b6000601f82018313610cd157600080fd5b8151610ce4610cdf826112b3565b61128c565b91508082526020830160208301858383011115610d0057600080fd5b610d0b838284611328565b50505092915050565b600060608284031215610d2657600080fd5b610d30606061128c565b825190915067ffffffffffffffff811115610d4a57600080fd5b610d5684828501610cc0565b8252506020610d6784848301610d93565b6020830152506040610d7b84828501610c5f565b60408301525092915050565b6000610c4c82356112fb565b6000610c4c82516112fb565b600060208284031215610db157600080fd5b6000610dbd8484610c40565b949350505050565b600060208284031215610dd757600080fd5b6000610dbd8484610c53565b60008060408385031215610df657600080fd5b6000610e028585610c40565b9250506020610e1385828601610c40565b9150509250929050565b600080600060408486031215610e3257600080fd5b6000610e3e8686610c40565b935050602084013567ffffffffffffffff811115610e5b57600080fd5b610e6786828701610c77565b92509250509250925092565b60008060408385031215610e8657600080fd5b6000610e928585610c40565b9250506020610e1385828601610d87565b600060208284031215610eb557600080fd5b6000610dbd8484610c5f565b60008060408385031215610ed457600080fd5b6000610e028585610c6b565b600060208284031215610ef257600080fd5b815167ffffffffffffffff811115610f0957600080fd5b610dbd84828501610d14565b600060208284031215610f2757600080fd5b6000610dbd8484610d93565b610f3c816112df565b82525050565b610f3c816112ea565b610f3c81611311565b6000828452602084019350610f6a83858461131c565b610f7383611358565b9093019392505050565b6000610f88826112db565b808452610f9c816020860160208601611328565b610fa581611358565b9093016020019392505050565b602481527f757365722068617320616e2061646d696e20726f6c6520617420746865206d6f60208201527f6d656e7400000000000000000000000000000000000000000000000000000000604082015260600190565b601681527f646220616c726561647920696e697469616c697a656400000000000000000000602082015260400190565b601881527f307830206173206f776e6572206e6f7420616c6c6f7765640000000000000000602082015260400190565b600c81527f656d70747920737472696e670000000000000000000000000000000000000000602082015260400190565b602481527f7573657220646f6573206e6f742068617665207468652072657175697265642060208201527f726f6c6500000000000000000000000000000000000000000000000000000000604082015260600190565b601781527f6d73672e73656e646572206973206e6f74206f776e6572000000000000000000602082015260400190565b601381527f5573657220646f6573206e6f7420657869737400000000000000000000000000602082015260400190565b610f3c816112fb565b602081016109e38284610f33565b604081016111738285610f33565b610c4c6020830184610f42565b6040810161118e8286610f33565b81810360208301526111a1818486610f54565b95945050505050565b604081016111b88285610f33565b610c4c602083018461114e565b602081016109e38284610f42565b602081016109e38284610f4b565b606080825281016111f28186610f7d565b9050611201602083018561114e565b610dbd6040830184610f42565b602080825281016109e381610fb2565b602080825281016109e381611008565b602080825281016109e381611038565b602080825281016109e381611068565b602080825281016109e381611098565b602080825281016109e3816110ee565b602080825281016109e38161111e565b602081016109e3828461114e565b60405181810167ffffffffffffffff811182821017156112ab57600080fd5b604052919050565b600067ffffffffffffffff8211156112ca57600080fd5b506020601f91909101601f19160190565b5190565b60006109e3826112ef565b151590565b600160a060020a031690565b90565b60006006821061130d57600080fd5b5090565b60006109e3826112df565b82818337506000910152565b60005b8381101561134357818101518382015260200161132b565b83811115611352576000848401525b50505050565b601f01601f19169056fea265627a7a7230582034ea0e97e689668a5a6d1093cf9fc8510ffcdf6eef0b722c24672b14d4c246786c6578706572696d656e74616cf50037",
  "source": "// Copyright 2018 Energy Web Foundation\n// This file is part of the Origin Application brought to you by the Energy Web Foundation,\n// a global non-profit organization focused on accelerating blockchain technology across the energy sector,\n// incorporated in Zug, Switzerland.\n//\n// The Origin Application is free software: you can redistribute it and/or modify\n// it under the terms of the GNU General Public License as published by\n// the Free Software Foundation, either version 3 of the License, or\n// (at your option) any later version.\n// This is distributed in the hope that it will be useful,\n// but WITHOUT ANY WARRANTY and without an implied warranty of\n// MERCHANTABILITY or FITNESS FOR A PARTICULAR PURPOSE.  See the\n// GNU General Public License for more details, at <http://www.gnu.org/licenses/>.\n//\n// @authors: slock.it GmbH; Martin Kuechler, martin.kuchler@slock.it; Heiko Burkhardt, heiko.burkhardt@slock.it\n\npragma solidity ^0.5.0;\npragma experimental ABIEncoderV2;\n\nimport \"../../contracts/Users/UserDB.sol\";\nimport \"../../contracts/Users/RoleManagement.sol\";\nimport \"ew-utils-general-contracts/contracts/Interfaces/Updatable.sol\";\nimport \"../../contracts/Interfaces/RolesInterface.sol\";\nimport \"../../contracts/Interfaces/UserContractLookupInterface.sol\";\n\n\n/// @title The logic-contract for the user-data\n/// @notice this contract will not directly store any data, instead it will store them into the userDB-contract\ncontract UserLogic is RoleManagement, Updatable, RolesInterface {\n\n    /// @notice db user-db for storing the contract\n    UserDB public db;\n\n    /// @notice constructor\n    /// @dev it will also call the RoleManagement-constructor\n    constructor(UserContractLookupInterface _userContractLookup) RoleManagement(_userContractLookup, address(_userContractLookup)) public {}\n\n    /// @notice function to deactive an use, only executable for user-admins\n    /// @param _user the user that should be deactivated\n    function deactivateUser(address _user)\n        external\n        onlyRole(RoleManagement.Role.UserAdmin)\n    {\n        require(\n            !isRole(RoleManagement.Role.UserAdmin,_user)\n            && !isRole(RoleManagement.Role.AssetAdmin,_user)\n            && !isRole(RoleManagement.Role.AgreementAdmin,_user)\n            ,\"user has an admin role at the moment\"\n        );\n\n        db.setUserActive(_user, false);\n    }\n\n    /// @notice Initialises the contract by binding it to a logic contract\n    /// @dev can only be called by the owner (UserContractLookup-Contract)\n    /// @param _database Sets the logic contract\n    function init(address _database, address _admin)\n        external\n        onlyOwner\n    {\n        require(address(db) == address(0x0), \"db already initialized\");\n        db = UserDB(_database);\n        db.setRoles(_admin, 2**uint(RoleManagement.Role.UserAdmin));\n    }\n\n    /// @notice funciton that can be called to create a new user in the storage-contract, only executable for user-admins!\n    /// @notice if the user does not exists yet it will be creates, otherwise the older userdata will be overwritten\n    /// @param _user address of the user\n    /// @param _organization organization the user is representing\n    function setUser(\n        address _user,\n        string calldata _organization\n    )\n        external\n        onlyRole(RoleManagement.Role.UserAdmin)\n    {\n        bytes memory orgBytes = bytes(_organization);\n        require(orgBytes.length>0, \"empty string\");\n        db.setUser(_user, _organization);\n    }\n\n    /// @notice function to set / edit the rights of an user / account, only executable for Top-Admins!\n    /// @param _user user that rights will change\n    /// @param _rights rights encoded as bitmask\n    function setRoles(address _user, uint _rights)\n        external\n        onlyRole(RoleManagement.Role.UserAdmin)\n        userExists(_user)\n    {\n        db.setRoles(_user, _rights);\n    }\n\n    /// @notice function to update the logic of a smart contract\n    /// @param _newLogic contract-address of the new smart contract, replacing the currently active one\n    function update(address _newLogic)\n        external\n        onlyOwner\n    {\n        db.changeOwner(_newLogic);\n    }\n\n    /// @notice function that checks if there is an user for the provided ethereum-address\n    /// @param _user ethereum-address of that user\n    /// @return bool if the user exists\n    function doesUserExist(address _user)\n        external\n        view\n        returns (bool)\n    {\n        return db.getFullUser(_user).active;\n    }\n\n    /// @notice function to return all the data of an user\n    /// @param _user user\n    /// @return returns firstName, surname, organization, street, number, zip, city, country, state, roles and the active-flag\n    function getFullUser(address _user)\n        external\n        view\n        returns (\n            string memory _organization,\n            uint _roles,\n            bool _active\n        )\n    {\n        UserDB.User memory user = db.getFullUser(_user);\n        _organization = user.organization;\n        _roles = user.roles;\n        _active = user.active;\n    }\n\n    /// @notice function to retrieve the rights of an user\n    /// @dev if the user does not exist in the mapping it will return 0x0 thus preventing them from accidently getting any rights\n    /// @param _user user someone wants to know its rights\n    /// @return bitmask with the rights of the user\n    function getRolesRights(address _user)\n        external\n        view\n        returns (uint)\n    {\n        return db.getFullUser(_user).roles;\n    }\n}\n",
  "sourcePath": "/Users/bagaricj/Code/ew-user-registry-lib/contracts/Users/UserLogic.sol",
  "compiler": {
    "name": "solc",
    "version": "0.5.0+commit.1d4f565a.Emscripten.clang"
  },
  "schemaVersion": "3.0.9",
  "updatedAt": "2019-05-16T14:34:38.398Z",
  "devdoc": {
    "methods": {
      "changeOwner(address)": {
        "params": {
          "_newOwner": "The address of the new owner"
        }
      },
      "constructor": {
        "details": "it will also call the RoleManagement-constructor"
      },
      "deactivateUser(address)": {
        "params": {
          "_user": "the user that should be deactivated"
        }
      },
      "doesUserExist(address)": {
        "params": {
          "_user": "ethereum-address of that user"
        },
        "return": "bool if the user exists"
      },
      "getFullUser(address)": {
        "params": {
          "_user": "user"
        },
        "return": "returns firstName, surname, organization, street, number, zip, city, country, state, roles and the active-flag"
      },
      "getRolesRights(address)": {
        "details": "if the user does not exist in the mapping it will return 0x0 thus preventing them from accidently getting any rights",
        "params": {
          "_user": "user someone wants to know its rights"
        },
        "return": "bitmask with the rights of the user"
      },
      "init(address,address)": {
        "details": "can only be called by the owner (UserContractLookup-Contract)",
        "params": {
          "_database": "Sets the logic contract"
        }
      },
      "isRole(uint8,address)": {
        "params": {
          "_caller": "the user trying to call the action",
          "_role": "role of a user"
        },
        "return": "whether the user has the corresponding rights for the intended action"
      },
      "setRoles(address,uint256)": {
        "params": {
          "_rights": "rights encoded as bitmask",
          "_user": "user that rights will change"
        }
      },
      "setUser(address,string)": {
        "params": {
          "_organization": "organization the user is representing",
          "_user": "address of the user"
        }
      },
      "update(address)": {
        "params": {
          "_newLogic": "contract-address of the new smart contract, replacing the currently active one"
        }
      }
    },
    "title": "The logic-contract for the user-data"
  },
  "userdoc": {
    "methods": {
      "changeOwner(address)": {
        "notice": "`owner` can step down and assign some other address to this role"
      },
      "constructor": "constructor",
      "deactivateUser(address)": {
        "notice": "function to deactive an use, only executable for user-admins"
      },
      "doesUserExist(address)": {
        "notice": "function that checks if there is an user for the provided ethereum-address"
      },
      "getFullUser(address)": {
        "notice": "function to return all the data of an user"
      },
      "getRolesRights(address)": {
        "notice": "function to retrieve the rights of an user"
      },
      "init(address,address)": {
        "notice": "Initialises the contract by binding it to a logic contract"
      },
      "isRole(uint8,address)": {
        "notice": "funciton for comparing the role and the needed rights of an user"
      },
      "setRoles(address,uint256)": {
        "notice": "function to set / edit the rights of an user / account, only executable for Top-Admins!"
      },
      "setUser(address,string)": {
        "notice": "funciton that can be called to create a new user in the storage-contract, only executable for user-admins!if the user does not exists yet it will be creates, otherwise the older userdata will be overwritten"
      },
      "update(address)": {
        "notice": "function to update the logic of a smart contract"
      }
    },
    "notice": "this contract will not directly store any data, instead it will store them into the userDB-contract"
  }
}