{
  "contractName": "UserContractLookup",
  "abi": [
    {
      "constant": true,
      "inputs": [],
      "name": "owner",
      "outputs": [
        {
          "name": "",
          "type": "address"
        }
      ],
      "payable": false,
      "stateMutability": "view",
      "type": "function"
    },
    {
      "constant": false,
      "inputs": [
        {
          "name": "_newOwner",
          "type": "address"
        }
      ],
      "name": "changeOwner",
      "outputs": [],
      "payable": false,
      "stateMutability": "nonpayable",
      "type": "function"
    },
    {
      "inputs": [],
      "payable": false,
      "stateMutability": "nonpayable",
      "type": "constructor"
    },
    {
      "anonymous": false,
      "inputs": [
        {
          "indexed": false,
          "name": "_newOwner",
          "type": "address"
        }
      ],
      "name": "LogChangeOwner",
      "type": "event"
    },
    {
      "constant": false,
      "inputs": [
        {
          "name": "_userRegistry",
          "type": "address"
        },
        {
          "name": "_db",
          "type": "address"
        }
      ],
      "name": "init",
      "outputs": [],
      "payable": false,
      "stateMutability": "nonpayable",
      "type": "function"
    },
    {
      "constant": false,
      "inputs": [
        {
          "name": "_userRegistry",
          "type": "address"
        }
      ],
      "name": "update",
      "outputs": [],
      "payable": false,
      "stateMutability": "nonpayable",
      "type": "function"
    },
    {
      "constant": true,
      "inputs": [],
      "name": "userRegistry",
      "outputs": [
        {
          "name": "",
          "type": "address"
        }
      ],
      "payable": false,
      "stateMutability": "view",
      "type": "function"
    }
  ],
  "bytecode": "0x608060405234801561001057600080fd5b5060008054600160a060020a0319163317905561061e806100326000396000f3fe60806040526004361061006c5763ffffffff7c01000000000000000000000000000000000000000000000000000000006000350416631c1b877281146100715780635c7460d6146100a65780638da5cb5b146100d7578063a6f9dae1146100ec578063f09a40161461011f575b600080fd5b34801561007d57600080fd5b506100a46004803603602081101561009457600080fd5b5035600160a060020a031661015a565b005b3480156100b257600080fd5b506100bb6102cb565b60408051600160a060020a039092168252519081900360200190f35b3480156100e357600080fd5b506100bb6102da565b3480156100f857600080fd5b506100a46004803603602081101561010f57600080fd5b5035600160a060020a03166102e9565b34801561012b57600080fd5b506100a46004803603604081101561014257600080fd5b50600160a060020a038135811691602001351661040c565b600054600160a060020a031633146101bc576040805160e560020a62461bcd02815260206004820152601760248201527f6d73672e73656e646572206973206e6f74206f776e6572000000000000000000604482015290519081900360640190fd5b600160a060020a038116151561021c576040805160e560020a62461bcd02815260206004820152601760248201527f7570646174653a2063616e6e6f742073657420746f2030000000000000000000604482015290519081900360640190fd5b600154604080517f1c1b8772000000000000000000000000000000000000000000000000000000008152600160a060020a03848116600483015291519190921691631c1b877291602480830192600092919082900301818387803b15801561028357600080fd5b505af1158015610297573d6000803e3d6000fd5b50506001805473ffffffffffffffffffffffffffffffffffffffff1916600160a060020a0394909416939093179092555050565b600154600160a060020a031690565b600054600160a060020a031681565b600054600160a060020a0316331461034b576040805160e560020a62461bcd02815260206004820152601760248201527f6d73672e73656e646572206973206e6f74206f776e6572000000000000000000604482015290519081900360640190fd5b600160a060020a03811615156103ab576040805160e560020a62461bcd02815260206004820152601860248201527f307830206173206f776e6572206e6f7420616c6c6f7765640000000000000000604482015290519081900360640190fd5b60008054600160a060020a03831673ffffffffffffffffffffffffffffffffffffffff19909116811790915560408051918252517f95fd54179c11867fb083dd94347ea50f144dd4cfd7612b7bca169f162824af169181900360200190a150565b600054600160a060020a0316331461046e576040805160e560020a62461bcd02815260206004820152601760248201527f6d73672e73656e646572206973206e6f74206f776e6572000000000000000000604482015290519081900360640190fd5b600160a060020a0382161580159061048f5750600154600160a060020a0316155b15156104e5576040805160e560020a62461bcd02815260206004820152601360248201527f616c726561647920696e697469616c697a656400000000000000000000000000604482015290519081900360640190fd5b600160a060020a0381161515610545576040805160e560020a62461bcd02815260206004820152600f60248201527f5f64622063616e6e6f7420626520300000000000000000000000000000000000604482015290519081900360640190fd5b6001805473ffffffffffffffffffffffffffffffffffffffff1916600160a060020a038481169190911791829055604080517ff09a401600000000000000000000000000000000000000000000000000000000815284831660048201523360248201529051929091169163f09a40169160448082019260009290919082900301818387803b1580156105d657600080fd5b505af11580156105ea573d6000803e3d6000fd5b50505050505056fea165627a7a72305820c5721e1a389efde475b1989173687ccaba57074cae50dbc549efc63a54ccb2f00029",
  "source": "// Copyright 2018 Energy Web Foundation\n// This file is part of the Origin Application brought to you by the Energy Web Foundation,\n// a global non-profit organization focused on accelerating blockchain technology across the energy sector,\n// incorporated in Zug, Switzerland.\n//\n// The Origin Application is free software: you can redistribute it and/or modify\n// it under the terms of the GNU General Public License as published by\n// the Free Software Foundation, either version 3 of the License, or\n// (at your option) any later version.\n// This is distributed in the hope that it will be useful,\n// but WITHOUT ANY WARRANTY and without an implied warranty of\n// MERCHANTABILITY or FITNESS FOR A PARTICULAR PURPOSE.  See the\n// GNU General Public License for more details, at <http://www.gnu.org/licenses/>.\n//\n// @authors: slock.it GmbH; Martin Kuechler, martin.kuchler@slock.it; Heiko Burkhardt, heiko.burkhardt@slock.it\n\npragma solidity ^0.5.0;\n\nimport \"ew-utils-general-contracts/contracts/Msc/Owned.sol\";\nimport \"ew-utils-general-contracts/contracts/Interfaces/Updatable.sol\";\nimport \"../contracts/Interfaces/UserContractLookupInterface.sol\";\n\n/// @title Contract for storing the current logic-contracts-addresses for the certificate of origin\ncontract UserContractLookup is Owned, UserContractLookupInterface {\n\n    Updatable private userRegistryContract;\n\n    /// @notice The constructor\n    constructor() Owned(msg.sender) public{ }\n\n    /// @notice function to initialize the contracts, setting the needed contract-addresses\n    /// @param _userRegistry user-registry logic contract address\n    /// @param _db the database-contract of the user-registry-system\n    function init(Updatable _userRegistry, address _db)\n        external\n        onlyOwner\n    {\n        require(address(_userRegistry) != address(0) && address(userRegistryContract) == address(0), \"already initialized\");\n        require(address(_db) != address(0x0), \"_db cannot be 0\");\n        userRegistryContract = _userRegistry;\n        userRegistryContract.init(_db, msg.sender);\n    }\n\n    /// @notice function to update one or more logic-contracts\n    /// @param _userRegistry address of the new user-registry-logic-contract\n    function update(\n        Updatable _userRegistry\n    )\n        external\n        onlyOwner\n    {\n        require(address(_userRegistry)!= address(0x0), \"update: cannot set to 0\");\n        userRegistryContract.update(address(_userRegistry));\n        userRegistryContract = _userRegistry;\n    }\n\n    /// @notice returns the current userRegistryLogic that has access to the db\n    /// @dev this function will be called by external contracts\n    /// @return the user-Registry\n    function userRegistry() external view returns (address){\n        return address(userRegistryContract);\n    }\n}\n",
  "sourcePath": "/Users/bagaricj/Code/ew-user-registry-lib/contracts/UserContractLookup.sol",
  "compiler": {
    "name": "solc",
    "version": "0.5.0+commit.1d4f565a.Emscripten.clang"
  },
  "schemaVersion": "3.0.9",
  "updatedAt": "2019-05-16T14:34:38.393Z",
  "devdoc": {
    "methods": {
      "changeOwner(address)": {
        "params": {
          "_newOwner": "The address of the new owner"
        }
      },
      "init(address,address)": {
        "params": {
          "_db": "the database-contract of the user-registry-system",
          "_userRegistry": "user-registry logic contract address"
        }
      },
      "update(address)": {
        "params": {
          "_userRegistry": "address of the new user-registry-logic-contract"
        }
      },
      "userRegistry()": {
        "details": "this function will be called by external contracts",
        "return": "the user-Registry"
      }
    },
    "title": "Contract for storing the current logic-contracts-addresses for the certificate of origin"
  },
  "userdoc": {
    "methods": {
      "changeOwner(address)": {
        "notice": "`owner` can step down and assign some other address to this role"
      },
      "constructor": "The constructor",
      "init(address,address)": {
        "notice": "function to initialize the contracts, setting the needed contract-addresses"
      },
      "update(address)": {
        "notice": "function to update one or more logic-contracts"
      },
      "userRegistry()": {
        "notice": "returns the current userRegistryLogic that has access to the db"
      }
    }
  }
}