{
  "contractName": "UserDB",
  "abi": [
    {
      "constant": true,
      "inputs": [],
      "name": "owner",
      "outputs": [
        {
          "name": "",
          "type": "address"
        }
      ],
      "payable": false,
      "stateMutability": "view",
      "type": "function"
    },
    {
      "constant": false,
      "inputs": [
        {
          "name": "_newOwner",
          "type": "address"
        }
      ],
      "name": "changeOwner",
      "outputs": [],
      "payable": false,
      "stateMutability": "nonpayable",
      "type": "function"
    },
    {
      "inputs": [
        {
          "name": "_logic",
          "type": "address"
        }
      ],
      "payable": false,
      "stateMutability": "nonpayable",
      "type": "constructor"
    },
    {
      "anonymous": false,
      "inputs": [
        {
          "indexed": false,
          "name": "_newOwner",
          "type": "address"
        }
      ],
      "name": "LogChangeOwner",
      "type": "event"
    },
    {
      "constant": false,
      "inputs": [
        {
          "name": "_user",
          "type": "address"
        },
        {
          "name": "_organization",
          "type": "string"
        }
      ],
      "name": "setOrganization",
      "outputs": [],
      "payable": false,
      "stateMutability": "nonpayable",
      "type": "function"
    },
    {
      "constant": false,
      "inputs": [
        {
          "name": "_user",
          "type": "address"
        },
        {
          "name": "_organization",
          "type": "string"
        }
      ],
      "name": "setUser",
      "outputs": [],
      "payable": false,
      "stateMutability": "nonpayable",
      "type": "function"
    },
    {
      "constant": false,
      "inputs": [
        {
          "name": "_user",
          "type": "address"
        },
        {
          "name": "_active",
          "type": "bool"
        }
      ],
      "name": "setUserActive",
      "outputs": [],
      "payable": false,
      "stateMutability": "nonpayable",
      "type": "function"
    },
    {
      "constant": false,
      "inputs": [
        {
          "name": "_user",
          "type": "address"
        },
        {
          "name": "_roles",
          "type": "uint256"
        }
      ],
      "name": "setRoles",
      "outputs": [],
      "payable": false,
      "stateMutability": "nonpayable",
      "type": "function"
    },
    {
      "constant": true,
      "inputs": [
        {
          "name": "_user",
          "type": "address"
        }
      ],
      "name": "getFullUser",
      "outputs": [
        {
          "components": [
            {
              "name": "organization",
              "type": "string"
            },
            {
              "name": "roles",
              "type": "uint256"
            },
            {
              "name": "active",
              "type": "bool"
            }
          ],
          "name": "user",
          "type": "tuple"
        }
      ],
      "payable": false,
      "stateMutability": "view",
      "type": "function"
    }
  ],
  "bytecode": "0x608060405234801561001057600080fd5b50604051602080610995833981018060405261002f9190810190610067565b60008054600160a060020a031916600160a060020a03929092169190911790556100aa565b60006100608251610099565b9392505050565b60006020828403121561007957600080fd5b60006100858484610054565b949350505050565b600160a060020a031690565b60006100a48261008d565b92915050565b6108dc806100b96000396000f3fe6080604052600436106100825763ffffffff7c01000000000000000000000000000000000000000000000000000000006000350416630ea6af87811461008757806333a3ad8f146100a95780633f1a51b8146100c957806388e084ca146100e95780638da5cb5b14610109578063a6f9dae114610134578063c7af3efc14610154575b600080fd5b34801561009357600080fd5b506100a76100a236600461067f565b610181565b005b3480156100b557600080fd5b506100a76100c43660046106d5565b61020e565b3480156100d557600080fd5b506100a76100e436600461067f565b61025b565b3480156100f557600080fd5b506100a7610104366004610645565b6102bf565b34801561011557600080fd5b5061011e61031a565b60405161012b9190610803565b60405180910390f35b34801561014057600080fd5b506100a761014f36600461061f565b610329565b34801561016057600080fd5b5061017461016f36600461061f565b6103e4565b60405161012b9190610837565b600054600160a060020a031633146101b75760405160e560020a62461bcd0281526004016101ae90610827565b60405180910390fd5b600160a060020a038316600090815260016020526040902060020154839060ff1615156101e357600080fd5b600160a060020a03841660009081526001602052604090206102068185856104ec565b505050505050565b600054600160a060020a0316331461023b5760405160e560020a62461bcd0281526004016101ae90610827565b600160a060020a0390911660009081526001602081905260409091200155565b600054600160a060020a031633146102885760405160e560020a62461bcd0281526004016101ae90610827565b600160a060020a03831660009081526001602052604090206102ab8184846104ec565b50600201805460ff19166001179055505050565b600054600160a060020a031633146102ec5760405160e560020a62461bcd0281526004016101ae90610827565b600160a060020a03919091166000908152600160205260409020600201805460ff1916911515919091179055565b600054600160a060020a031681565b600054600160a060020a031633146103565760405160e560020a62461bcd0281526004016101ae90610827565b600160a060020a03811615156103815760405160e560020a62461bcd0281526004016101ae90610817565b6000805473ffffffffffffffffffffffffffffffffffffffff1916600160a060020a0383161790556040517f95fd54179c11867fb083dd94347ea50f144dd4cfd7612b7bca169f162824af16906103d9908390610803565b60405180910390a150565b6103ec61056a565b600054600160a060020a031633146104195760405160e560020a62461bcd0281526004016101ae90610827565b600160a060020a0382166000908152600160208181526040928390208351815460029481161561010002600019011693909304601f8101839004909202830160809081019094526060830182815292939092849290918491908401828280156104c35780601f10610498576101008083540402835291602001916104c3565b820191906000526020600020905b8154815290600101906020018083116104a657829003601f168201915b50505091835250506001820154602082015260029091015460ff16151560409091015292915050565b828054600181600116156101000203166002900490600052602060002090601f016020900481019282601f1061052d5782800160ff1982351617855561055a565b8280016001018555821561055a579182015b8281111561055a57823582559160200191906001019061053f565b5061056692915061058e565b5090565b60606040519081016040528060608152602001600081526020016000151581525090565b6105a891905b808211156105665760008155600101610594565b90565b60006105b7823561084c565b9392505050565b60006105b78235610857565b600080601f830184136105dc57600080fd5b50813567ffffffffffffffff8111156105f457600080fd5b60208301915083600182028301111561060c57600080fd5b9250929050565b60006105b782356105a8565b60006020828403121561063157600080fd5b600061063d84846105ab565b949350505050565b6000806040838503121561065857600080fd5b600061066485856105ab565b9250506020610675858286016105be565b9150509250929050565b60008060006040848603121561069457600080fd5b60006106a086866105ab565b935050602084013567ffffffffffffffff8111156106bd57600080fd5b6106c9868287016105ca565b92509250509250925092565b600080604083850312156106e857600080fd5b60006106f485856105ab565b925050602061067585828601610613565b61070e8161084c565b82525050565b61070e81610857565b600061072882610848565b80845261073c816020860160208601610868565b61074581610898565b9093016020019392505050565b601881527f307830206173206f776e6572206e6f7420616c6c6f7765640000000000000000602082015260400190565b601781527f6d73672e73656e646572206973206e6f74206f776e6572000000000000000000602082015260400190565b80516060808452600091908401906107ca828261071d565b91505060208301516107df60208601826107fa565b5060408301516107f26040860182610714565b509392505050565b61070e816105a8565b602081016108118284610705565b92915050565b6020808252810161081181610752565b6020808252810161081181610782565b602080825281016105b781846107b2565b5190565b60006108118261085c565b151590565b600160a060020a031690565b60005b8381101561088357818101518382015260200161086b565b83811115610892576000848401525b50505050565b601f01601f19169056fea265627a7a7230582079a78534870954d9b2d0cb71cb5baba915cde1631418d7944f2ab3d9857cfb576c6578706572696d656e74616cf50037",
  "source": "// Copyright 2018 Energy Web Foundation\n// This file is part of the Origin Application brought to you by the Energy Web Foundation,\n// a global non-profit organization focused on accelerating blockchain technology across the energy sector,\n// incorporated in Zug, Switzerland.\n//\n// The Origin Application is free software: you can redistribute it and/or modify\n// it under the terms of the GNU General Public License as published by\n// the Free Software Foundation, either version 3 of the License, or\n// (at your option) any later version.\n// This is distributed in the hope that it will be useful,\n// but WITHOUT ANY WARRANTY and without an implied warranty of\n// MERCHANTABILITY or FITNESS FOR A PARTICULAR PURPOSE.  See the\n// GNU General Public License for more details, at <http://www.gnu.org/licenses/>.\n//\n// @authors: slock.it GmbH; Martin Kuechler, martin.kuchler@slock.it; Heiko Burkhardt, heiko.burkhardt@slock.it\n\npragma solidity ^0.5.0;\npragma experimental ABIEncoderV2;\n\nimport \"ew-utils-general-lib/contracts/Msc/Owned.sol\";\n\n/// @title The database contract for the users, traders and admins of the certificate of origin\n/// @notice This contract only provides getter and setter methods that are only callable by the corresponging owner-contract\ncontract UserDB is Owned {\n\n    struct User {\n        string organization;\n        uint roles;\n        bool active;\n    }\n\n    /// @notice mapping for addresses to users\n    mapping(address => User) private userList;\n\n    /// @notice modifier to check whether a user is already set in the state\n    modifier userExists(address _user) {\n        require(userList[_user].active);\n        _;\n    }\n\n    /// @notice The constructor of the UserDB\n    /// @param _logic the logic contract owning this database contract\n    constructor(address _logic) Owned(_logic) public { }\n\n    /// @notice function to change the name of an existing organization, can only be used when the user already exists\n    /// @dev the onlyOwner-modifier is used, so that only the logic-contract is allowed to write into the storage\n    /// @param _user ethereum-address of an user\n    /// @param _organization new name of the organization\n    function setOrganization(\n        address _user,\n        string calldata _organization\n    )\n        external\n        onlyOwner\n        userExists(_user)\n    {\n        User storage u = userList[_user];\n        u.organization = _organization;\n    }\n\n    /// @notice function for creating, editing an user, it cannot be used to set a Role of an user\n    /// @notice if the user does not exists yet it will be creates, otherwise the older userdata will be overwritten\n    /// @dev the onlyOwner-modifier is used, so that only the logic-contract is allowed to write into the storage\n    /// @param _user address of the user\n    /// @param _organization organization the user is representing\n    function setUser(\n        address _user,\n        string calldata _organization\n    )\n        external\n        onlyOwner\n    {\n        User storage u = userList[_user];\n        u.organization = _organization;\n        u.active = true;\n    }\n\n    /// @notice function to (de-)active a user, dan only be used when the user already exists\n    /// @dev the onlyOwner-modifier is used, so that only the logic-contract is allowed to write into the storage\n    /// @param _user ethereum-address of an user\n    /// @param _active flag if the account should be active\n    function setUserActive(address _user, bool _active) external onlyOwner {\n        User storage u = userList[_user];\n        u.active = _active;\n    }\n\n    /// @notice function for editing the rights of an user\n    /// @dev the onlyOwner-modifier is used, so that only the logic-contract is allowed to write into the storage\n    /// @param _user address of the user\n    /// @param _roles first name of the user\n    function setRoles(address _user, uint _roles) external onlyOwner {\n        User storage u = userList[_user];\n        u.roles = _roles;\n    }\n\n    /// @notice function to return all the data of an user\n    /// @dev the onlyOwner-modifier is used, so that only the logic-contract is allowed to read directly from the contract\n    /// @param _user account of the user to be returned\n    /// @return returns user-struct\n    function getFullUser(address _user)\n        onlyOwner\n        external\n        view\n        returns (\n          User memory user\n        )\n    {\n        return userList[_user];\n    }\n}\n",
  "sourcePath": "/Users/bagaricj/Code/ew-user-registry-lib/contracts/Users/UserDB.sol",
  "compiler": {
    "name": "solc",
    "version": "0.5.0+commit.1d4f565a.Emscripten.clang"
  },
  "schemaVersion": "3.0.9",
  "updatedAt": "2019-05-16T15:21:02.863Z",
  "devdoc": {
    "methods": {
      "changeOwner(address)": {
        "params": {
          "_newOwner": "The address of the new owner"
        }
      },
      "constructor": {
        "params": {
          "_logic": "the logic contract owning this database contract"
        }
      },
      "getFullUser(address)": {
        "details": "the onlyOwner-modifier is used, so that only the logic-contract is allowed to read directly from the contract",
        "params": {
          "_user": "account of the user to be returned"
        },
        "return": "returns user-struct"
      },
      "setOrganization(address,string)": {
        "details": "the onlyOwner-modifier is used, so that only the logic-contract is allowed to write into the storage",
        "params": {
          "_organization": "new name of the organization",
          "_user": "ethereum-address of an user"
        }
      },
      "setRoles(address,uint256)": {
        "details": "the onlyOwner-modifier is used, so that only the logic-contract is allowed to write into the storage",
        "params": {
          "_roles": "first name of the user",
          "_user": "address of the user"
        }
      },
      "setUser(address,string)": {
        "details": "the onlyOwner-modifier is used, so that only the logic-contract is allowed to write into the storage",
        "params": {
          "_organization": "organization the user is representing",
          "_user": "address of the user"
        }
      },
      "setUserActive(address,bool)": {
        "details": "the onlyOwner-modifier is used, so that only the logic-contract is allowed to write into the storage",
        "params": {
          "_active": "flag if the account should be active",
          "_user": "ethereum-address of an user"
        }
      }
    },
    "title": "The database contract for the users, traders and admins of the certificate of origin"
  },
  "userdoc": {
    "methods": {
      "changeOwner(address)": {
        "notice": "`owner` can step down and assign some other address to this role"
      },
      "constructor": "The constructor of the UserDB",
      "getFullUser(address)": {
        "notice": "function to return all the data of an user"
      },
      "setOrganization(address,string)": {
        "notice": "function to change the name of an existing organization, can only be used when the user already exists"
      },
      "setRoles(address,uint256)": {
        "notice": "function for editing the rights of an user"
      },
      "setUser(address,string)": {
        "notice": "function for creating, editing an user, it cannot be used to set a Role of an userif the user does not exists yet it will be creates, otherwise the older userdata will be overwritten"
      },
      "setUserActive(address,bool)": {
        "notice": "function to (de-)active a user, dan only be used when the user already exists"
      }
    },
    "notice": "This contract only provides getter and setter methods that are only callable by the corresponging owner-contract"
  }
}